:400000000080002011000000610A0000610A000008B5044B1A6803F53F5302331A6000F027FD00BFFA46004010B5054C237833B9044B13B10448AFF300800123237010BD7D
:400040004081FF1F0000000010160000084B10B51BB108490848AFF300800848036803B910BD074B002BFBD0BDE81040184700BF000000004481FF1F10160000C880FF1FC6
:40008000000000000020704700230360074A8260C2600261426180F8233080F826308361FF2380F8243080F82830704785000000F8B504460F4616461D46FFF7E5FFA76025
:4000C000E6602561069B6361204600F04FF8F8BD10B544690023A04710BD00BF01608B7C80F82230704700BF38B50446456900231A462821A847E56800231A4614212046C2
:40010000A84701224B212046FFF7E2FF23681A7929212046FFF7DCFF00224B212046FFF7D7FF23681A7929212046FFF7D1FF01224B212046FFF7CCFF23685A79292120464D
:40014000FFF7C6FF38BD00BF10B582B08DF805108DF806208DF8043002AB049A43F8082D846801220F21A04702B010BD10B5846800231A460921A04710BD00BF10B5846839
:4001800000231A460A21A04710BD00BF10B5846800230A460B21A04710BD00BF70B582B0044600238DF8053001228DF8042000910268567C8DF80630A56822686B46127CB3
:4001C0000F212046A8479DF806300133DBB28DF806309E42F0D802B070BD00BF00B583B00023009301936946FFF7D8FF03B05DF804FB00BFF8B5054614461E460B39042952
:4002000060D8DFE801F0035F0E21300022B92E4900F0C0F80120F8BD2C4900F0BBF80120F8BD42B92A4900F0B5F82B689B7C85F822300120F8BD274900F0ACF82B68DB7C07
:4002400085F822300120F8BD00F094F88121284600F078F82146284600F07CF8284600F091F80120F8BD00F085F87779FF00FFB295F822301F44FFB24021284600F062F8DE
:40028000390941F01001284600F05CF807F00F01284600F05FF8B17941F0B001284600F059F83179C900326801F0F801284600F059F8621E12F0FF04F3D1284600F062F8EA
:4002C0000120F8BD0020F8BD181D0000201D0000281D0000301D000038B505460C46FFF789FF98B90346092C0AD00A2C0FD12846FFF7FAFE0749284600F04CF8012306E030
:4003000005492846FFF7EAFE012300E00123184638BD00BF381D0000701D0000F8B504460E46174600F0BEF84021204600F0AEF825693B46324617212046A847204600F0F2
:40034000B9F8F8BD10B5C46800230A461521A04710BD00BF10B5C46800230A461621A04710BD00BF10B5C46813460A461721A04710BD00BF10B5C46800231A461821A04723
:4003800010BD00BF10B5C46800231A461921A04710BD00BF70B582B005460C4614F8011B172911D002D8152905D226E0192915D9FE2919D021E014F8012B8DF80720EE68E3
:4003C00000232846B047E9E714F8013B02AA02F8013D01212846FFF7C5FFDFE7EE6800231A462846B047D9E714F8012B8DF8072029212846FFF76CFED0E702B070BD00BF1A
:40040000F8B5064614461D46A1F11403052B04D8DFE803F02505051C32320020F8BD00F041F80021304600F031F82146304600F02DF8304600F03EF80120F8BD2A4618212D
:400440003046FFF76BFF183CE4B21835182CF5D82A4621463046FFF761FF0120F8BD90F82430FF2B02D1782380F8243037692B4622463046B847F8BD0120F8BD10B50469FA
:4004800013460A461721A04710BD00BF00B583B002AA02F8011D0121FFF7F0FF03B05DF804FB00BF10B5046900231A461821A04710BD00BF10B5046900231A461921A04738
:4004C00010BD00BFF0B5C5692E7895F801E0AF78EC7804FB07F48E421ED8E4B28E451DD3891B89B204FB01F4A4B223449BB2DB009BB204339BB2002106E0C469E45C545440
:4005000001339BB20131C9B20729F6D909E00021D1540133DBB202E0002300E00023072BF5D990F8233033B9F0BDD15CC943D1540133DBB200E00023072BF6D9F0BD00BF93
:4005400019B10A2904D088B270474FF6FF7070474FF6FF70704700BFC16170472DE9F04F87B00746039190469A46C36993F8029093F803B089445FFA89F993445FFA8BFB43
:400580000025039C04AE2B46324651463846FFF799FF00960123424621463846FFF7D4FD0135EDB20134E4B2A145EBD808F101085FFA88F8C345E4D807B0BDE8F08F00BFC9
:4005C000002380F8263070472DE9F84305460E4691461C46C36993F80280FFF7F1FF00276B682178284698474FF6FF7398420FD001344FF6FE739842F2D0C3B24A463146B8
:400600002846FFF7ABFF4644F6B20137FFB2E7E73846BDE8F88300BF10B5024C4460FFF7D3FF10BD4105000008B500F0F1FD0122014B1A7008BD00BF5C81FF1F08B52A29B1
:4006400007D02B2909D029290AD1104600F06CFA06E00A2000F07EFA02E0642000F034FF012008BD38B514461D4614390C2908D8DFE801F01F07070F131B0707070707075E
:400680001F00002038BD15F8010B00F0F9FC013CE4B2002CF7D1012038BD90F824000021400800F07BFC012038BD00F0C1FC012038BD012038BD00BF30B5A1B000241F94F4
:4006C0001E94364800F018FE00F0E8FD00F072FD00F084FE00F0BEFE322000F01BFD304D6C8000F0E9FD2F4BA3FB00235B096B8062B600F0ABFA2C4B00932C4B2C4A2D4935
:4007000003A8FFF7D5FC03A8FFF738FD214603A8FFF73CFD03A8FFF761FD274903A8FFF71BFF1F4B1B78012BFBD100F00DFE4FF47A7303FB00F01A4C6388B0FBF3F01F906A
:400740001F9BC3EB03139A001E921E980A2216A900F00DFF1F980A220EA900F008FF16A800F092FE154B0122114603A8FFF754FF16AB0222012103A8FFF74EFF104B032202
:40078000012103A8FFF748FF0EAB0422012103A8FFF742FF00232370C3E700BF290600005C81FF1F1F85EB513D0600006506000001040000D902000014160000401E00000D
:4007C000481E0000FEE700BFF0B40022174611E050F82760F3B226F0FF0608E001EB420511F812406D78A5550132013BDBB2002BF4D10137272FEBD9F0BC7047064B1B7872
:40080000DBB203F00701054A11701B09013213704422034B1A707047CF0100496E5800407658004008B50A46002100F0ADFE08BD38B50024354B1C80582202331A7003214C
:40084000023319801823324A137033200232108002321370EF20023210800232137040F2E730023210800232137040F65F10023210800232137040F6C31226480280023007
:40088000037002300280244A13700222234B1A7008224FF040231A7003F500731970204B1B78DBB21F490B701F4B1A8041F25122023B1A8019250CE01C4B1B7803F00103B0
:4008C00043EA440404F003044FF4F07000F0FCFD013D0DB1032CEFD115B90320FFF772FF134B4FF480721A8007221A70002211490A704820023108701A700222033B1A705A
:4009000003F2A1331A78FF221A7038BD8040004086400040984000409E4000400043004008010049A14600402242004025420040044000400640004008B500F01AFE08BDA5
:4009400038B572B6354A137843F00403137000240CE0334D630019194A0011462A44084691882858FFF75EFF0134E4B2072CF0D900240BE02A48A20011194B0003441A8FDE
:40098000596B186BFFF7D8FF0134E4B2022CF1D924494FF09040FFF717FF234A137843F0020313701032137843F0020313701F4C237843F040032370A2F58632513A137829
:4009C00043F0100313700A2219491A48FFF7B4FF0A2219491948FFF7AFFF082218491948FFF7AAFF082218491848FFF7A5FF184A137843F008031370164D61232B70FFF7CC
:400A000017FF81232B700122134B1A70FFF7F6FE0E2221461148FFF78FFF38BDE8460040541E0000A000004803500140A043004070120048005100407C120048C051004002
:400A400088120048125100409012004822510040224300400048004004000840B043004008B500F041FD03680C2B00D1FEE7FEE708B5104E104D16E029686B68AC68002278
:400A800004E051F8040B43F8040B0432A242F8D1E868002203E0002143F8041B04328242F9D11035013E002EE6D100F023FDFFF703FEFEE701000000501F000008B5104A5D
:400AC000104B1A60104A136843F40073136000230AE0032B03D80D4A52F8231000E00C490C4A42F8231001332F2BF2D90A4B1A780A4B1A70074A0A4B1A60FFF721FF08BD33
:400B00000004FA050CED00E014ED00E000000000610A00000080FF1FBC760040C080FF1F08ED00E001BE704710B5044605E0084B186800F0C9FCA4F50044B4F5004FF6D8B5
:400B4000034B586800FB04F000F0BEFC10BD00BFCC80FF1F08B5034B1B7A00FB03F000F0B3FC08BDCC80FF1F70B504460E46074B1D681F2802D90020FFF7D4FF04F01F04C0
:400B8000103455F8240045F8246070BD08ED00E038B504460D46072902D90020FFF7C2FF1F2C02D90020FFF7BDFF04F01F0000F1604000F564406D01EDB2057038BD00BFE6
:400BC00038B50024144B1C7001250B331D7000F083FC124A137843F01003137000F080FC0F220F4B1A70082210331A7002220D4B1A6007212846FFF7CBFF0B492846FFF76D
:400C0000B3FF1022094B1A70094B1C70094B1C70094B1C7038BD00BF7F6400409A6400402F64004080E100E0750C00006681FF1F6C81FF1F7581FF1F6D81FF1F024A1378A1
:400C400043F00203137070477F64004008B5074B1B7823B9FFF7B4FF0122044B1A70FFF7EDFF0222024B1A6008BD00BF6081FF1F00E100E038B5AC4B1C78AC4B1B7813F0A6
:400C8000400F00F07B81E4B214F0010F00F04281A64B1B78453B052B00F23981DFE813F006009200370137010600F90004F0DF0504F00A04082C50D19C4B1B78DBB2452B45
:400CC0003DD19B4B1B7813F0FF0F16D0994B1B681B78DBB2984A13700622984B1A70FF22643B1A70002240331A700122944B1A7046228E4B1A702C460CE1924B1B7813F063
:400D0000020F0CD0904A137843F00A0313706022864B1A7002228D4B1A602C46FAE08C4A137843F0200313705222844B1A70FF22643B1A70002240331A702C46EAE002222F
:400D40007E4B1A70FF22643B1A70002240331A704A22764B1A702C46DCE00A2C2DD17A4A137843F0A0031370764B1B7813F0020F13D06E4B1B7813F0080F01D0092300E068
:400D80000A23714A11780B4313706022674B1A7002226E4B1A602C46BCE06D4A137843F0200313705222654B1A70FF22643B1A70002240331A702C46ACE00020FFF7B2FED8
:400DC0002C46A7E014F0020F3ED15D4B1A78D2B2574B1B78DBB29A4216D2594A1378DBB254490968CB5CDBB253490B700621534B1970FF21643B19700021403319701378C0
:400E00000133DBB2137085E04E4B1B7813F0020F0BD04D4A137843F00A0313706022434B1A700222494B1A6074E0494A137843F0200313705222414B1A70FF22643B1A701E
:400E4000002240331A7065E03E4B1B7813F0020F0BD03D4A137843F09A0313706022334B1A700222394B1A6054E0394A137843F0200313705222314B1A70FF22643B1A7013
:400E8000002240331A70304A137843F09003137040E0304A1378DBB22F49086826490978C9B2C15413780133DBB213701278D2B22A4B1B78DBB29A4209D202221F4B1A706A
:400EC000FF22643B1A70002240331A7022E01D4B1B7813F0020F0BD01B4A137843F0090313706022114B1A700222184B1A6011E0174A137843F02003137012220F4B1A70B4
:400F0000FF22643B1A70002240331A7002E00020FFF708FE14F0200F38D0044B1B7813F0080F1DD001231CE06A6400406681FF1F6E81FF1F6881FF1F0B6400407F6400400D
:400F40006D81FF1F6F81FF1F6C81FF1F80E100E08A6400407581FF1F7081FF1F7481FF1F02230B4A11780B4313700A4A137803F0DF0313701022084B1A7038BD064B1B78B4
:400F800013F0100F02D11022034B1A7038BD00BF6C81FF1F8A6400406681FF1F1F4B1B78DBB2102B33D11E4B1B7813F0100F30D102221C4B1A604000C0B229B140F0010096
:400FC0004922164B1A7002E04522144B1A70164B1870822274331A70FF22643B1A70002240331A70114B1B7813F0FF0FFAD10C4B1B7813F0010FFAD0094B1B7803F00A03C9
:401000000A2B08D11022054B1A700320704702207047012070470020704700BF6681FF1F6A64004080E100E00B6400401B6400400F4B1B7813F0040F17D052220D4B1A7073
:40104000FF22643B1A70002240331A700A4B1B7813F0FF0FFAD11022084B1A70044B1B7813F0210FFAD0002070470220704700BF6A6400407F6400401B6400406681FF1FF1
:40108000164B1B7813F0040F26D0154B1870062274331A70FF22643B1A70002240331A70104B1B7813F0FF0FFAD146220E4B1A700A4B1B7813F0010FFAD0084B1B7813F0C3
:4010C000020F04D16022084B1A70002070476022054B1A7003207047022070476A6400400B6400401B6400406681FF1F024A137843F080031370704773640040014B188082
:40110000704700BF18680040014B1880704700BF98680040014B1880704700BF58680040014B1870704700BF8D640040014B1878704700BF6D640040014B188880B27047D2
:40114000B868004008B501E0FFF7F6FFFFF7EEFF10F0100FF8D108BD10B5144A137803F0C00343F0090313702932137843F0010313700F4C237843F001032370EF20FFF76B
:40118000BDFFEF20FFF7C0FF7820FFF7C3FF0020FFF7C6FF00F0A0F9237843F01003237000F09EF9FFF7CEFF10BD00BF736400409D64004008B5054B1B7823B9FFF7CCFF1C
:4011C0000122024B1A70FFF791FF08BD6181FF1F024A137843F080031370704778640040014B1880704700BF0E680040014B1880704700BF8E680040014B1880704700BFCD
:401200004E680040014B1870704700BF87640040014B1878704700BF67640040014B188880B27047AE68004008B501E0FFF7F6FFFFF7EEFF10F0100FF8D108BD10B5154A7E
:40124000137803F0C00343F00A031370124C237843F0010323702032137843F00103137042F20F70FFF7BCFF42F20F70FFF7BEFF41F28730FFF7C0FF0120FFF7C3FF00F0DE
:401280002BF9237843F01003237000F029F9FFF7CBFF10BD786400409764004008B5054B1B7823B9FFF7CAFF0122024B1A70FFF78FFF08BD6281FF1F014B188880B270474C
:4012C0008E680040014B1B681864704708ED00E04001C0B2014B1870704700BF00E400E00122014B1A60704700E100E00122014B1A60704780E100E010B50446FFF7F6FFE4
:401300002046FFF7DFFF0720FFF7E2FFFFF7E8FF10BD00BF024A137843F080031370704777650040014B1870704700BF87650040014B1878704700BF67650040014B186091
:40134000704700BF04650040014B1868704700BF44650040014B1860704700BF24650040014B1860704700BF3465004008B501E0FFF7EAFFFFF7DCFF10F0400FF8D108BDE2
:4013800008B5144A137803F0F80343F005031370137803F0FC0343F008031370FFF7E6FF6FF00100FFF7D6FF0020FFF7C7FF0020FFF7B8FFFFF7BCFFFF20FFF7D1FF00F068
:4013C0008BF8054A137843F01003137000F088F808BD00BF776500409765004008B5054B1B7823B9FFF7CCFF0122024B1A70FFF791FF08BD6381FF1F7222074B1A70202245
:4014000004331A700622613B1A70472210331A7000224C331A7070478565004010B500F05BF804460A4A137843F0200313700432137843F010031370053A137843F01003B7
:40144000137000F033F8204600F04AF810BD00BF9565004008B5054B1B7823B9FFF7CCFF0122024B1A70FFF7D9FF08BD6481FF1F034B1B7813F0040FFAD1024B1870704755
:40148000646500404B65004038B5074B1B782BB938BDFFF7EDFF0134A4B201E005460024285D0028F5D138BD6481FF1F054A137843F0040313701032137843F0040313703F
:4014C000704700BFA24300400230800803D000BF01380046FCD17047EFF3108072B6704780F31088704700BF014B1868704700BF3C81FF1F0E4B70B51E460E4C0025E41AB4
:40150000A410A54204D056F8253098470135F8E700F00CFD084B094C1E46E41AA4100025A54204D056F8253098470135F8E770BD381F0000381F0000381F0000401F0000E6
:40154000931E222B10B50C4602D90020087010BD0A2A06D1002804DA2D230B704042012100E00021214400F017F8204610BDFFF7E7BF10B5431E0A44914204D011F8014BF2
:4015800003F8014FF8E710BD03460244934202D003F8011BFAE77047F0B58BB003460F466D461A4C04F1200E2E4620686168083403C674453546F7D1217920683171911E5C
:4015C000222930604FF0000001D938701CE07D1EB3FBF2F402FB14330AAE334413F8283C411C05F8013F23460CB10846F0E77C543A18C11A8B4206DAF95C1478FC5402F888
:4016000001190133F5E738460BB0F0BDA41E00000000000020FF010100000000000000000000005F5F0000000007070007070000147F7F1C7F7F140000242A7F7F2A120015
:40164000466630180C666200307A4F5D377A4800000000070700000000001C3E63410000000041633E1C0000082A3E1C1C3E2A080008083E3E080800000080E060000000D5
:40168000000808080808080000000060600000006030180C060301003E7F5149457F3E000040427F7F40400000727B49496F660000226149497F36001814527F7F50100029
:4016C00000276F4949793300003E7F49497B3200000301717D0F070000367F49497F360000266F49497F3E000000006C6C000000000080EC6C00000000081C366341000084
:401700000024242424242400004163361C08000000020351590F06003E7F415D5D5F1E00007C7E13137E7C00417F7F49497F36001C3E634141632200417F7F41633E1C0039
:40174000417F7F495D416300417F7F491D0103003C7E434151737200007F7F08087F7F000041417F7F414100307040417F3F0100417F7F081C776300417F7F414060700008
:401780007F7F0E1C0E7F7F007F7F060C187F7F001C3E6341633E1C00417F7F49090706003C7E4351336E5C00417F7F09193F660000266F49497B32000003417F7F410300CB
:4017C000003F7F40407F3F00001F3F60603F1F007F7F3018307F7F0061731E0C1E73610000074F78784F0700476371594D67730000007F7F414100000103060C1830600098
:40180000000041417F7F0000080C0603060C08008080808080808080000002060C080000207454543C784000433F7F44447C380000387C44446C2800387C44453F7F40005D
:4018400000387C54545C180000487E7F490302000098BCA4A4FC7C00417F7F08047C78000000447D7D4000000060E08084FC7D00417F7F10386C44000000417F7F400000C1
:40188000787C0C380C7C7800047C78040478780000387C44447C380084FCF8A4243C1800183C24A4F8FC8400447C78440C08000000485C545474200000043F7F44642000EE
:4018C000003C7C40407C7C00001C3C60603C1C003C7C6038607C3C00446C3810386C4400009CBCA0A0FC7C00004C64745C4C4400004141773E0808000000007F7F0000009B
:401900000008083E7741410002030103020101000000000000000000000000FFFF00000018181818181818180000001F1F181818000000F8F8181818181818F8F80000009F
:401940001818181F1F0000001818181F1F181818000000FFFF181818181818F8F8181818181818FFFF000000181818FFFF18181800081C3E0808080000080C3E0C08000099
:40198000000808083E1C08000008183E1808000000000000F0F0F0F0F0F0F0F000000000F0F0F0F0F0F0F0F0000000000F0F0F0F00000000FFFFFFFFF0F0F0F00F0F0F0FFB
:4019C000F0F0F0F0FFFFFFFF0F0F0F0F000000000F0F0F0FF0F0F0F0FFFFFFFF00000000FFFFFFFFF0F0F0F00F0F0F0F0F0F0F0F0F0F0F0FFFFFFFFFFFFFFFFF0F0F0F0F53
:401A0000FFFFFFFFFFFFFFFFC0C0C0C0C0C0C0C0FCFCFCFCFCFCFCFC00000000000000000000007D7D000000387C44FE446C2800487E7F4949636200005A3C24243C5A00F6
:401A40000015577E7E571500000000777700000040487E771D09010000030300000303001C225D5555221C00485D554F5E500000081C362A1C362200000808080808180042
:401A800000001010100000001C225D4D55221C000000010101010000000E1B111B0E00000048487E7E48480000191D1517120000001115151F0A0000000004070300000012
:401AC00000F8F84040783800020F7F7F017F0100000000181800000000004040600000000000111F1F100000004E5B515B4E000022361C2A361C0800021F0030287C200017
:401B0000021F0048645448001115150A30287C200030784D4570300000787D15147C780000787C14157D780000787C15157C780000787D15157D780000797D14147D7900CB
:401B400000787E15157E7800787C127F7F496B000C9EB3E1E1331200447D7D5454544400447C7C5555544400447C7D5555554400447D7D54555544000044457D7C4444002D
:401B80000044447C7D4544000044457D7D4544000045457C7C454500497F7F49633E1C00007A7911227A7900387C4545447C3800387C4444457D3800387C4545457C3800FA
:401BC000387D4545457D3800387D4544457D380042663C183C6642005C3E735D673E1D01003C7D41407C3C00003C7C40417D3C00003C7D41417D3C00003D7D40407D3D009B
:401C0000000C5D71705C0C007F7F2222221C00007E7F4949493E3600207555543C784000207454553D784000207455553D784000207555553D794000207555543D79400026
:401C4000207655553E7840002074547C3454580000183CA4E424280000387D55545C180000387C54555D180000387D55555D180000397D54545D19000000497B7A400000F8
:401C80000000487A7B41000000004A797942000000024A78784202000035754B4E7D3100087A71090A7A71000030794B4A7830000030784A4B79300000307A49497A300014
:401CC000003279494A7A310000327A48487A32000008086B6B08080080B07868587834040038794342787800003878424379780000387A41417A7800003A7A40407A7A006B
:401D00000098B8A2A3F97800007E242424180000009ABAA0A0FA7A001815AF19FF0000001815AE19FF0000001815A115C819FF001815A015C019FF001815AE15D5168015BF
:401D4000A8163F15D316001540158D16141520160015A115C815DA1612158116CF15D916F115DB1640152E15A415A619FF0000000001140A6464323200127A000004289634
:401D800010080000800040001815AE15D5168015A8163F15D316001540158D16141520160015A115C815DA1612158116EF15D916A115DB1600152E15A415A619FF000000B5
:401DC0001815AE15D5168015A8163F15D316001540158D16141520160015A115C815DA1602158116CF15D916F115DB1640152E15A415A619FF0000000001140A64643232A2
:401E000000093D000304289610080202800040001815AE15A415D5165015A8163F15D31600154015AD168B15D9162215DB16351532158116FF15A615DA161219FF000000D2
:401E400052504D3A20000000696E70757420667265712000305100404000F0510040100000000140001080140140000200170140000500400140000A004C0140000200507A
:401E800001402000605200406811004806000014014070110048800080160140F011004880004300303132333435363738396162636465666768696A6B6C6D6E6F7071720F
:401EC000737475767778797A00000000000000000000000000000000000000000000000000000000000000000000000000000000000000000000000000000000000000002E
:401F00000000000000000000000000000000000000000000000000000000000000000000000000000000000000000000F8B500BFF8BC08BC9E4670474D000000BD0A00000E
:401F4000F8B500BFF8BC08BC9E46704729000000601F0000C880FF1F7800000038000000000000000000E02EC05D00001800000000366E0100000000CC1E0000EC1E000048
:401F80000C1F000000000000000000000000000000000000A21E00000000000000000000000000000000000000000000000000000000000000000000000000000000000036
:401FC0000000000000000000000000000000000000000000DC80FF1F0000000000000000000000000000000000000000000000000000000000000000000000000000000067
:4020000000000000000000000000000000000000000000000000000000000000000000000000000000000000000000000000000000000000000000000000000000000000A0
:402040000000000000000000000000000000000000000000000000000000000000000000000000000000000000000000000000000000000000000000000000000000000060
:402080000000000000000000000000000000000000000000000000000000000000000000000000000000000000000000000000000000000000000000000000000000000020
:4020C00000000000000000000000000000000000000000000000000000000000000000000000000000000000000000000000000000000000000000000000000000000000E0
:020000040003F7
:0200000480007A
:40000000035200400C6400400465004069000140390101405A0201405103014068040140500501405A060140520701406808014051090140680A01404B0B0140760C0140A4
:40004000560D0140640E0140390F01402E1401405615014028160140531701406B180140501901406E1A0140581B014003400140094101400A4201400643014005440140AC
:400080000B450140044601400147014001480140044C01400C4D014008500140015101400401104011022B042F0F3F08800F810D8272843885388672870D890F8D0D840FC3
:4000C00085728777893803200510074009100BAC0C010DDC0F22150C177119141C021F032109220423D0320133E034043602371F3B083E444020410149FF4AFF4BFF4DA040
:400100004F0450185401580459045A045B045C655D655F01604062C06440654066C068C06AC06CC06EC083048437870488378931940295319605982499089A129D029F10E5
:40014000A120A301A508A811AA2AAD08B130B207B308B430B504B608B703B982BF11C060C101C5D0C721C832C9FFCAFFCBFFCDAFCE0FCF04D018D405D804D904DA04DB049F
:40018000DC66DD55DF01E040E2C0E440E540E6C0E8C0EAC0ECC0EEC00080030104280608072009800D080E04118012411510180419681C011D1C1E041F10218022082310AE
:4001C0002544260227182A012E082F423020318032083688372039053A203B803C243E024004420246024D204F015606588059085A205B015E405F09C061C261C448CAD131
:40020000CC7ECEEFD01CD220D6DF0120020406C3070F08FF09300B4F0C3C0D4F0EC10F30110F14BC15101642181819301C0420E7217F22182408250A29052C102D3C2F434B
:400240003098313C321F342035403658370339203A883B0A3E104005450449FF4A074BFF4C404D204EF04F05500856025712580459045A045B045C665D665F01604061A8A0
:40028000624063208D0193029E019F01B001B502B701C031C106C5ECC6B0C80BC9FFCAFFCBFFCEF0CF44D00CD280D804D904DA04DB04DC44DD46DF01E6C0EA40EB02041120
:4002C00005C0071008400C100D080F021682170418801D481E141F01219024102511260827412C802D902F103040310234103601372438803D083E92400242204501468047
:40030000484049084B104D054E8250205E046C146F027102760277247C027D018108821084108510862088408D8090019330942895159660978099149A059B109C809E608B
:40034000A104A202A470A680A702AD40C0F0C2E1C4B0CAF0CCE9CEF8D00AD214D640E002030107010B021A011B02220127043201330637013E043F44401241064204440382
:40038000460E470C481449FF4AFF4BFF4C624DA04EF04F41500C5418580459045A045B045D665F016640670269106A306B106D106E106F1280CC82238310840C8704880451
:4003C0008C088F0892409301944198F39A0C9C4F9E90A003A6B3A710A802AB06ACFFAF01B102B27CB301B40FB50CB68CB710BA28BF54C063C105C204C402C50CC7E0C821F7
:40040000C9FFCAFFCBFFCC62CDA0CEF0CF41D00CD418D804D904DA04DB04DC77DD77DF01E640E702E910EA30EB10ED10EE10EF120401058006100708080409140D020E2401
:400440000F011080154016A81B041E151F28201022802526264029042C202D202F0631103602391A3B023C883D023E89401041014350452946204A084C204D404F6050801C
:40048000510457025B015E0262806308640678027A407B30800182109115931296409780991C9A059B519C809E40A110A208A410A904AA01AC80AD10AE08AF01C0F0C2F29D
:4004C000C4F8CA72CC84CED7D0EFD234D681D83C00D001020228050806C0084A0A140D3D10C01304151816C018C019191B241EC020A42212243F25252718283F29192B2468
:400500002C012D1030383120320133023406351C36C0370139023B203F4456025713580459045B045C775D705F01850487128C029103960199049A069B09A718AE01B004A6
:40054000B104B202B401B518B602B703B902BE54C030C105C9FFCAFFCBFFCDA0CF04D018D405D604D804D904DA04DB04DC30DD33DF01E040E2C0E440E540E6C0E8C0EAC0F0
:40058000ECC0EEC000400521062009200A200C200D080F4110021542171418511A061C881D091E0221222240242025102622270228202C202D802E202F283010310234014D
:4005C0003504362039083D803E0A3F40402048025A845B015F0263806D406F1475847618770880028110830184048505910593109420964097C199289A059C809D809E50FE
:400600009F08A328A454A508A603A810AE10AF04C071C2F6C4F1CA72CCE5CED2D002D208D68BD801E20CEA20011803060740092A0B100D04112213181501171E191C1B22E5
:400640001D2221062532270829012D3F2E01331F34013560390840204104451D4602481749FF4AFF4BFF4DAF4E0F4F0450185280580459045A045B045C135D335F01604088
:4006800062C06440654066C068C06AC06CC06EC0870889308A068B408C128E208F539018922294389531960497C6982099AC9B439D319F4EA001A428A820AA18AB8CB201D0
:4006C000B3F0B43EB50FB78ABBA8BE04C061C105C50BC6CEC80DC9FFCAFFCBFFCEF0CF44D00CD401D804D904DA04DB04DC77DD77DF01E6C0EA40EB020160061007200AA03C
:400700000B08102012481302174019281A081D10200222582410262027082B042C412E202F10325834023580362439803A103B083CA43D02401041404220440846804821D0
:400740004A084D014F0452505480568859085A405B22610C77408080840185098D408F04900492049732984299849B01A040A141A280A319A410A504A620AC11AD08AF4079
:40078000B080B501B710C003C20EC48ECAF4CCFECEFED0A8D20CD60FEA200240031B0602071308150A800D010F32109511011306140415011638170418C41A201B131CC40B
:4007C0001D121E081F0120112204249528112A8430C03107323C3308340235103601372038803A083B023E403F1054205604580459045B045C115D105F018174830884107B
:40080000850389308A048B408D039120935094019510960297E099749B08A560A710A911AB80AC01AE0AB003B10EB210B3F0B408B502B604B701B9A2BB08BF11C051C40676
:40084000C60BC7DDC834C9FFCA7FCBFFCC42CDA0CE70D00CD804D904DA04DC11DD01DF01E109E240E309E430E509002801020408052009090A220B080E2012A01310160194
:40088000180119221A681D151E041F44212422422540260827482F1431143242340A362839083B823C203D0A3E803F0447404E0554405604570358195A4060816120900C9B
:4008C000920293409714984299809A819B019D059E049F08A004A290A318A410A540A620A702A801B240B310B708C06EC22FC48ECA60CCEFCEFBD010D230D60FD80DEC04E0
:400900000080015D03A2044005920614076009400A400B1D0FFF10501104120213E0144015E21618193D1A201BC21C401E081F02200F2308245025012601283F29012C042E
:400940002D0D2E08323F34C037FF38283E103F404050410349FF4AFF4BFF4DA04F045018580459045A045C015D045F01604062C06440654066C068C06AC06CC06EC0813A1B
:4009800083048501860289018D408E038F079103957F99059A019B789D229F05A103A501A908AB07AD10AF07B402B57FB601BE10BF10C050C102C5D1C620C80BC9FFCAFFBC
:4009C000CBFFCDAFCE0FCF04D018D405D804D904DA04DB04DC04DD44DF01E040E2C0E440E540E6C0E8C0EAC0ECC0EEC002120501062409040B180D010F1610101220141867
:400A0000154118021A041D201E201F082004270128412A682B802C082D102E082F82310432A03302340A3584362039563A023C203DCA3E224320461049024A024B084E0232
:400A400052105320588059025A0460026280630286028B048C809008910592029340971099809A899C019D049F08A00CA101A280A390A410A560A620A702B084B549B60133
:400A8000B710C075C2F2C4F0CAFFCCFFCEFFD044D218D60BE010E280000301280353044F050807230848090B0A020B100C030E201040110112141306141F15031710180140
:400AC00019301B031C901E0B1F802042210222092301257926012704284029402A0B2B2B2C012D082F103107341F36E037F838803B023E40580459045C115F018301840188
:400B0000850489A98B548FB5900191A5934A95FF991A9B609E019F04A102A702A94DAB92ADCCAF13B1FFB601BF01C032C550C602C806C9FFCAFFCBFFCC42CDA0CE70D00845
:400B4000D110D2F6D804D904DA04DB04DC01DD11DF01E148E240E348E480E548E680E74800200220038A0504080409410A040E020F8011441280131018041A021B501E0267
:400B80001F80228223432740288029042A102B022C012D082F8832223348340435843620370238043B113C023D803E0C3F20452047084D0156806C046D04740975887608A4
:400BC00089408A10C02FC29FC40FCAFFCCFFCEF7D060843086408E8C943196C69CAC9E43A253A608A831AA4EB2F0B60FBA88BB80C035C101C205C9FFCAFFCBFFCDAFCE0786
:400C0000CF01D018D602D713D804D904DA04DB04DC76DD20DF01E040E280E440E540E680E840EA50EBA8EC40ED20EE50EFA800040160034005080601084009200E21100AEB
:400C400012201515188019241B011C201E211F442130228823402540284029282A022B013002312833403480368039113B98401041804580470848014E01580259045A50D2
:400C80005D026F2674A48048814084068510860288A089028B408C028D088E789014910592029310978099089A019B489C809F04A001A180A410A540A722B320B602B71471
:400CC000C0AFC2A3C477CA0FCC0FCE0FD05AD218D68FE003E208E402E60C1101140225012A032D0130023201330138803E4040354101420549FF4AFF4BFF4DAF4E074F0144
:400D000050185280580459045A045B045C255D505F016040628064406540668068406A506BA86C406D206E506FA800800A900B020E2010A8160419401A181D801E60200252
:400D400021042388271029412F223020310232483602388039184010418045804708484149044E0150C0510A5210530158105A085B80600161086210641065046828691041
:400D80006A80710176408004834090119105920293109640978099089A059C809E40A208A410A540AA08AC11AD08B202B301B420B610B740C001C22DC44ECA59CC8FCE0EC9
:400DC000D05AD218D60ED80EE204E601EA04EE42000102020401050F06040A020B020D0F0E08160217011A101B041F0827082A062B0F2F0F3010320E330F340138203A08AF
:400E00003B803F044003474049FF4A074BFF4C404D204EF04F055008580459045A045C215D025F01604061A8624063208380851F86048B808D018E208F26901D94109514DC
:400E400096059749A002A20CA51FA620A81DA90AAB51B004B107B203B318B418B580B620B760B828BE51BF50C063C101C204C405C50CC6E0C809C9FFCAFFCBFFCC62CDA01F
:400E8000CEF0CF41D00CD418D804D904DA04DB04DC27DD22DF01E640E702E910EA30EB10ED10EE10EF120180021003020504068007090AA00E040F2010A0120817201940AF
:400EC0001A401B241C201E281F012006210823402584282029202F193108344036903728382039023A043B403D803E843F204180422043024704482149105010560B5901F7
:400F0000600461406730820992A495809640973A99049A109B09A140A288A319A410A504A604A704AE08B204B304B418B510C0F5C26CC44ECA76CC72CE7FD04BD20CD601F0
:400F4000D80CEAC4EE2000FF040F051006F00841099C0B210C040F03110812F31482159C172218F31A0C1B041C081DBF21042340240C281C29A72AE32B182CC32D1830C04A
:400F80003120322C331F340F3540361C378039023A283B083F404002450449FF4A074BFF4C404D204EF04F055008580459045A045C225D075F01604061A862406320808098
:400FC0008256830884FF8725880E8A308B589123935494339523960C974C98469AA99D5A9E019F24A02AA254A840AA13B31CB4FFB503B76CB920BB88BF10C032C106C5B038
:40100000C7ECC832C9FFCAFFCBFFCEF0CF44D00CD804D904DA04DC21DD02DF01E6C0EA40EB0200800128034005040680070809080A050B800E080F2211041350144017206C
:40104000182019991A041E081F102002210122142310268827042882291031803214334134013688382039083B803E1A432046184B084D024E085080514055015604810253
:401080008210840385048698884189048A018B018D018E0493C09582972898C099249A8A9B289D919F04A188A331A480B0A0B120B220B340B624C07FC2EFC457CA0DCCDF7F
:4010C000CEEED064D220E020E290E4A0E610E880EC5031203520CC30038052089D20A280A520AE80C010D420EE10050252809D20A280A520A608AF80C020D420EC10A5207C
:40110000AA08AD02B120EA20EC10108014107004C40CDC0103105B105D029408B010B480C008D401D601EA04EE029B10A902B404E8089B10B5209008AB10B404E80810104A
:4011400070047E018A0190089C10B010C408DC01DE04E004EA0400FB08700AC90C8A0E1210E71AE51C86000F80A40000480000004000000210020000000203001400000212
:40118000000D0010000C0011300D0C301C0022150028001180000002094010002C001120604080011F3C00020200002000000445530103000000000000FFFFFF00A00001DA
:4011C000180000000100000004040404222000014000800040408000400050A8402050A8000000000000000000000000000000000000000000400000000200240030030694
:401200001820440801000041000E0010400C102260000C401C00200004004800003E0000003E020101407C400000000000001051530103000002C54E3FFFFFFF00AF0701DC
:40124000180087001700000004040404000000014000800040408000400050A8402050A80000000000000000000000000000000002000102020002000000000084004884FE
:40128000B400B40000000000000B0B000000000001C2C2004200000000000000000000000000000000000000000000000000000000000000000000000000000000000000E9
:4012C00000000000000000000000000000000000000000000000000000000000000000000000000000000000000000000000000000000000000000000000000000000000EE
:4013000000000000000000000000000000000000000000000000000000000000000000000000000000000000000000000000000000000000000000000000000000000000AD
:40134000000000000000000000000000000000000000000000000000000000000000000000000000000000000000000000000000000000000000000000000000000000006D
:40138000000000000000000000000000000000000000000000000000000000000000000000000000000000000000000000000000000000000000000000000000000000002D
:0200000490006A
:0400000000004005B7
:0200000490105A
:04000000BC90ACAF55
:0200000490303A
:020000004219A3
:0200000490402A
:4000000000000000000000000000000000000000000000000000000000000000000000000000000000000000000000000000000000000000000000000000000000000000C0
:400040000000000000000000000000000000000000000000000000000000000000000000000000000000000000000000000000000000000000000000000000000000000080
:400080000000000000000000000000000000000000000000000000000000000000000000000000000000000000000000000000000000000000000000000000000000000040
:4000C0000000000000000000000000000000000000000000000000000000000000000000000000000000000000000000000000000000000000000000000000000000000000
:0200000490501A
:0C00000000012E16106900012E2652820D
:00000001FF